{
  "contractName": "CardAuction",
  "abi": [
    {
      "constant": true,
      "inputs": [],
      "name": "itemSet",
      "outputs": [
        {
          "name": "",
          "type": "bool"
        }
      ],
      "payable": false,
      "stateMutability": "view",
      "type": "function"
    },
    {
      "constant": true,
      "inputs": [],
      "name": "auctionEnd",
      "outputs": [
        {
          "name": "",
          "type": "uint256"
        }
      ],
      "payable": false,
      "stateMutability": "view",
      "type": "function"
    },
    {
      "constant": true,
      "inputs": [],
      "name": "beneficiary",
      "outputs": [
        {
          "name": "",
          "type": "address"
        }
      ],
      "payable": false,
      "stateMutability": "view",
      "type": "function"
    },
    {
      "constant": true,
      "inputs": [],
      "name": "auctionEnded",
      "outputs": [
        {
          "name": "",
          "type": "bool"
        }
      ],
      "payable": false,
      "stateMutability": "view",
      "type": "function"
    },
    {
      "constant": true,
      "inputs": [],
      "name": "highestBidder",
      "outputs": [
        {
          "name": "",
          "type": "address"
        }
      ],
      "payable": false,
      "stateMutability": "view",
      "type": "function"
    },
    {
      "constant": true,
      "inputs": [],
      "name": "auctionItem",
      "outputs": [
        {
          "name": "",
          "type": "address"
        }
      ],
      "payable": false,
      "stateMutability": "view",
      "type": "function"
    },
    {
      "constant": true,
      "inputs": [],
      "name": "highestBid",
      "outputs": [
        {
          "name": "",
          "type": "uint256"
        }
      ],
      "payable": false,
      "stateMutability": "view",
      "type": "function"
    },
    {
      "inputs": [
        {
          "name": "_auctionTime",
          "type": "uint256"
        },
        {
          "name": "minimalBid",
          "type": "uint256"
        }
      ],
      "payable": false,
      "stateMutability": "nonpayable",
      "type": "constructor"
    },
    {
      "anonymous": false,
      "inputs": [
        {
          "indexed": false,
          "name": "bidder",
          "type": "address"
        },
        {
          "indexed": false,
          "name": "amount",
          "type": "uint256"
        }
      ],
      "name": "HighestBidIncreased",
      "type": "event"
    },
    {
      "anonymous": false,
      "inputs": [
        {
          "indexed": false,
          "name": "winner",
          "type": "address"
        },
        {
          "indexed": false,
          "name": "id",
          "type": "uint256"
        }
      ],
      "name": "AuctionEnded",
      "type": "event"
    },
    {
      "constant": false,
      "inputs": [
        {
          "name": "_auctionItem",
          "type": "address"
        }
      ],
      "name": "addCard",
      "outputs": [],
      "payable": false,
      "stateMutability": "nonpayable",
      "type": "function"
    },
    {
      "constant": false,
      "inputs": [],
      "name": "bid",
      "outputs": [],
      "payable": true,
      "stateMutability": "payable",
      "type": "function"
    },
    {
      "constant": false,
      "inputs": [],
      "name": "withdraw",
      "outputs": [
        {
          "name": "",
          "type": "bool"
        }
      ],
      "payable": false,
      "stateMutability": "nonpayable",
      "type": "function"
    },
    {
      "constant": false,
      "inputs": [],
      "name": "endAuction",
      "outputs": [],
      "payable": false,
      "stateMutability": "nonpayable",
      "type": "function"
    }
  ],
  "bytecode": "0x6060604052341561000f57600080fd5b604051604080610b8883398101604052808051906020019091908051906020019091905050336000806101000a81548173ffffffffffffffffffffffffffffffffffffffff021916908373ffffffffffffffffffffffffffffffffffffffff160217905550814201600281905550806004819055505050610af3806100956000396000f3006060604052600436106100af576000357c0100000000000000000000000000000000000000000000000000000000900463ffffffff1680630941149b146100b45780631998aeef146100e15780632a24f46c146100eb57806338af3eed146101145780633ccfd60b146101695780633dc509521461019657806386433374146101cf57806391f90157146101fc578063c2c042ca14610251578063d57bde79146102a6578063fe67a54b146102cf575b600080fd5b34156100bf57600080fd5b6100c76102e4565b604051808215151515815260200191505060405180910390f35b6100e96102f7565b005b34156100f657600080fd5b6100fe6104a5565b6040518082815260200191505060405180910390f35b341561011f57600080fd5b6101276104ab565b604051808273ffffffffffffffffffffffffffffffffffffffff1673ffffffffffffffffffffffffffffffffffffffff16815260200191505060405180910390f35b341561017457600080fd5b61017c6104d0565b604051808215151515815260200191505060405180910390f35b34156101a157600080fd5b6101cd600480803573ffffffffffffffffffffffffffffffffffffffff169060200190919050506105f5565b005b34156101da57600080fd5b6101e261078e565b604051808215151515815260200191505060405180910390f35b341561020757600080fd5b61020f6107a1565b604051808273ffffffffffffffffffffffffffffffffffffffff1673ffffffffffffffffffffffffffffffffffffffff16815260200191505060405180910390f35b341561025c57600080fd5b6102646107c7565b604051808273ffffffffffffffffffffffffffffffffffffffff1673ffffffffffffffffffffffffffffffffffffffff16815260200191505060405180910390f35b34156102b157600080fd5b6102b96107ed565b6040518082815260200191505060405180910390f35b34156102da57600080fd5b6102e26107f3565b005b600660019054906101000a900460ff1681565b600254421115151561030857600080fd5b6004543411151561031857600080fd5b6000600360009054906101000a900473ffffffffffffffffffffffffffffffffffffffff1673ffffffffffffffffffffffffffffffffffffffff161415156103cc5760045460056000600360009054906101000a900473ffffffffffffffffffffffffffffffffffffffff1673ffffffffffffffffffffffffffffffffffffffff1673ffffffffffffffffffffffffffffffffffffffff168152602001908152602001600020600082825401925050819055505b33600360006101000a81548173ffffffffffffffffffffffffffffffffffffffff021916908373ffffffffffffffffffffffffffffffffffffffff160217905550346004819055507ff4757a49b326036464bec6fe419a4ae38c8a02ce3e68bf0809674f6aab8ad300600360009054906101000a900473ffffffffffffffffffffffffffffffffffffffff16600454604051808373ffffffffffffffffffffffffffffffffffffffff1673ffffffffffffffffffffffffffffffffffffffff1681526020018281526020019250505060405180910390a1565b60025481565b6000809054906101000a900473ffffffffffffffffffffffffffffffffffffffff1681565b600080600560003373ffffffffffffffffffffffffffffffffffffffff1673ffffffffffffffffffffffffffffffffffffffff16815260200190815260200160002054905060008111156105ec576000600560003373ffffffffffffffffffffffffffffffffffffffff1673ffffffffffffffffffffffffffffffffffffffff168152602001908152602001600020819055503373ffffffffffffffffffffffffffffffffffffffff166108fc829081150290604051600060405180830381858888f1935050505015156105eb5780600560003373ffffffffffffffffffffffffffffffffffffffff1673ffffffffffffffffffffffffffffffffffffffff16815260200190815260200160002081905550600091506105f1565b5b600191505b5090565b6000809054906101000a900473ffffffffffffffffffffffffffffffffffffffff1673ffffffffffffffffffffffffffffffffffffffff163373ffffffffffffffffffffffffffffffffffffffff1614151561064d57fe5b3073ffffffffffffffffffffffffffffffffffffffff168173ffffffffffffffffffffffffffffffffffffffff16638da5cb5b6000604051602001526040518163ffffffff167c0100000000000000000000000000000000000000000000000000000000028152600401602060405180830381600087803b15156106d057600080fd5b6102c65a03f115156106e157600080fd5b5050506040518051905073ffffffffffffffffffffffffffffffffffffffff1614151561070d57600080fd5b60001515600660019054906101000a900460ff16151514151561072f57600080fd5b80600160006101000a81548173ffffffffffffffffffffffffffffffffffffffff021916908373ffffffffffffffffffffffffffffffffffffffff1602179055506001600660016101000a81548160ff02191690831515021790555050565b600660009054906101000a900460ff1681565b600360009054906101000a900473ffffffffffffffffffffffffffffffffffffffff1681565b600160009054906101000a900473ffffffffffffffffffffffffffffffffffffffff1681565b60045481565b600254421015151561080457600080fd5b600660009054906101000a900460ff1615151561082057600080fd5b6001600660006101000a81548160ff0219169083151502179055507fdaec4582d5d9595688c8c98545fdd1c696d41c6aeaeb636737e84ed2f5c00eda600360009054906101000a900473ffffffffffffffffffffffffffffffffffffffff16600160009054906101000a900473ffffffffffffffffffffffffffffffffffffffff1673ffffffffffffffffffffffffffffffffffffffff1663af640d0f6000604051602001526040518163ffffffff167c0100000000000000000000000000000000000000000000000000000000028152600401602060405180830381600087803b151561090d57600080fd5b6102c65a03f1151561091e57600080fd5b50505060405180519050604051808373ffffffffffffffffffffffffffffffffffffffff1673ffffffffffffffffffffffffffffffffffffffff1681526020018281526020019250505060405180910390a16000809054906101000a900473ffffffffffffffffffffffffffffffffffffffff1673ffffffffffffffffffffffffffffffffffffffff166108fc6004549081150290604051600060405180830381858888f1935050505015156109d357600080fd5b600160009054906101000a900473ffffffffffffffffffffffffffffffffffffffff1673ffffffffffffffffffffffffffffffffffffffff1663f2fde38b600360009054906101000a900473ffffffffffffffffffffffffffffffffffffffff166040518263ffffffff167c0100000000000000000000000000000000000000000000000000000000028152600401808273ffffffffffffffffffffffffffffffffffffffff1673ffffffffffffffffffffffffffffffffffffffff168152602001915050600060405180830381600087803b1515610ab157600080fd5b6102c65a03f11515610ac257600080fd5b5050505600a165627a7a723058209faf1191b4788b2763e4a2ee0da63e6f577cb0e395c02946dda95c0c9f9a62880029",
  "source": "pragma solidity ^0.4.18;\nimport 'contracts/Card.sol';\n\ncontract CardAuction {\n\n  address public beneficiary;\n  Card public auctionItem;\n  uint public auctionEnd;\n\n  address public highestBidder;\n  uint public highestBid;\n\n  // List of bids that need to be returned\n  mapping(address => uint) pendingReturns;\n\n  bool public auctionEnded;\n  bool public itemSet;\n\n  event HighestBidIncreased(address bidder, uint amount);\n  event AuctionEnded(address winner, uint id);\n\n  function CardAuction (\n    uint _auctionTime,\n    uint minimalBid\n  ) public {\n\n    beneficiary = msg.sender;\n    auctionEnd = now + _auctionTime;\n    highestBid = minimalBid;\n  }\n\n  function addCard(Card _auctionItem) external onlyOwner {\n    // Ownership of card has to be transferred to this contract\n    require(_auctionItem.owner() == address(this));\n    require(itemSet == false);\n    auctionItem = _auctionItem;\n    itemSet = true;\n  }\n\n  function bid() public payable {\n\n    // Only bid before auction ends\n    require(now <= auctionEnd);\n\n    // If account does not outbid highest bidder, exit early\n    require(msg.value > highestBid);\n\n    if (highestBidder != 0) {\n      pendingReturns[highestBidder] += highestBid;\n    }\n    highestBidder = msg.sender;\n    highestBid = msg.value;\n    HighestBidIncreased(highestBidder, highestBid);\n  }\n\n  function withdraw() public returns (bool){\n    uint amount = pendingReturns[msg.sender];\n    if (amount > 0) {\n      // Has to be set first to prevent rentry attacks\n      pendingReturns[msg.sender] = 0;\n\n      if (!msg.sender.send(amount)) {\n        pendingReturns[msg.sender] = amount;\n        return false;\n      }\n    }\n    return true;\n  }\n\n  function endAuction() public {\n    require(now >= auctionEnd); // auction did not yet end\n    require(!auctionEnded); // this function has already been called\n\n    auctionEnded = true;\n    AuctionEnded(highestBidder, auctionItem.id());\n\n    // pay card owner\n    beneficiary.transfer(highestBid);\n    // transfer card to winner\n    auctionItem.transferOwnership(highestBidder);\n  }\n\n  modifier onlyOwner() {\n      assert(msg.sender == beneficiary);\n      _;\n  }\n}\n",
  "sourcePath": "C:\\Users\\Ollie\\Projects\\Uni\\cryptomtg\\src\\truffle\\contracts\\CardAuction.sol",
  "compiler": {
    "name": "solc",
    "version": "0.4.19+commit.c4cbbb05.Emscripten.clang"
  },
  "schemaVersion": "1.0.1",
  "updatedAt": "2018-03-03T20:32:27.945Z"
}